{
  "_format": "hh-sol-artifact-1",
  "contractName": "StrawCoinIco",
  "sourceName": "contracts/StrawCoinIco.sol",
  "abi": [
    {
      "inputs": [
        {
          "internalType": "uint256",
          "name": "_rate",
          "type": "uint256"
        },
        {
          "internalType": "address",
          "name": "_token",
          "type": "address"
        },
        {
          "internalType": "uint256",
          "name": "_openingTime",
          "type": "uint256"
        },
        {
          "internalType": "uint256",
          "name": "_closingTime",
          "type": "uint256"
        },
        {
          "internalType": "uint256",
          "name": "_hardCap",
          "type": "uint256"
        }
      ],
      "stateMutability": "nonpayable",
      "type": "constructor"
    },
    {
      "inputs": [
        {
          "internalType": "address",
          "name": "owner",
          "type": "address"
        }
      ],
      "name": "OwnableInvalidOwner",
      "type": "error"
    },
    {
      "inputs": [
        {
          "internalType": "address",
          "name": "account",
          "type": "address"
        }
      ],
      "name": "OwnableUnauthorizedAccount",
      "type": "error"
    },
    {
      "anonymous": false,
      "inputs": [
        {
          "indexed": true,
          "internalType": "address",
          "name": "previousOwner",
          "type": "address"
        },
        {
          "indexed": true,
          "internalType": "address",
          "name": "newOwner",
          "type": "address"
        }
      ],
      "name": "OwnershipTransferred",
      "type": "event"
    },
    {
      "anonymous": false,
      "inputs": [
        {
          "indexed": true,
          "internalType": "address",
          "name": "puchaser",
          "type": "address"
        },
        {
          "indexed": false,
          "internalType": "uint256",
          "name": "amount",
          "type": "uint256"
        }
      ],
      "name": "TokenPurchase",
      "type": "event"
    },
    {
      "inputs": [
        {
          "internalType": "address",
          "name": "",
          "type": "address"
        }
      ],
      "name": "balances",
      "outputs": [
        {
          "internalType": "uint256",
          "name": "",
          "type": "uint256"
        }
      ],
      "stateMutability": "view",
      "type": "function"
    },
    {
      "inputs": [
        {
          "internalType": "address",
          "name": "",
          "type": "address"
        }
      ],
      "name": "balancesToken",
      "outputs": [
        {
          "internalType": "uint256",
          "name": "",
          "type": "uint256"
        }
      ],
      "stateMutability": "view",
      "type": "function"
    },
    {
      "inputs": [],
      "name": "buyTokens",
      "outputs": [],
      "stateMutability": "payable",
      "type": "function"
    },
    {
      "inputs": [],
      "name": "closingTime",
      "outputs": [
        {
          "internalType": "uint256",
          "name": "",
          "type": "uint256"
        }
      ],
      "stateMutability": "view",
      "type": "function"
    },
    {
      "inputs": [],
      "name": "getBalance",
      "outputs": [
        {
          "internalType": "uint256",
          "name": "",
          "type": "uint256"
        }
      ],
      "stateMutability": "view",
      "type": "function"
    },
    {
      "inputs": [],
      "name": "getBalanceToken",
      "outputs": [
        {
          "internalType": "uint256",
          "name": "",
          "type": "uint256"
        }
      ],
      "stateMutability": "view",
      "type": "function"
    },
    {
      "inputs": [],
      "name": "hardCap",
      "outputs": [
        {
          "internalType": "uint256",
          "name": "",
          "type": "uint256"
        }
      ],
      "stateMutability": "view",
      "type": "function"
    },
    {
      "inputs": [],
      "name": "openingTime",
      "outputs": [
        {
          "internalType": "uint256",
          "name": "",
          "type": "uint256"
        }
      ],
      "stateMutability": "view",
      "type": "function"
    },
    {
      "inputs": [],
      "name": "owner",
      "outputs": [
        {
          "internalType": "address",
          "name": "",
          "type": "address"
        }
      ],
      "stateMutability": "view",
      "type": "function"
    },
    {
      "inputs": [],
      "name": "raisedAmount",
      "outputs": [
        {
          "internalType": "uint256",
          "name": "",
          "type": "uint256"
        }
      ],
      "stateMutability": "view",
      "type": "function"
    },
    {
      "inputs": [],
      "name": "rate",
      "outputs": [
        {
          "internalType": "uint256",
          "name": "",
          "type": "uint256"
        }
      ],
      "stateMutability": "view",
      "type": "function"
    },
    {
      "inputs": [],
      "name": "renounceOwnership",
      "outputs": [],
      "stateMutability": "nonpayable",
      "type": "function"
    },
    {
      "inputs": [],
      "name": "tokenAmount",
      "outputs": [
        {
          "internalType": "uint256",
          "name": "",
          "type": "uint256"
        }
      ],
      "stateMutability": "view",
      "type": "function"
    },
    {
      "inputs": [
        {
          "internalType": "address",
          "name": "newOwner",
          "type": "address"
        }
      ],
      "name": "transferOwnership",
      "outputs": [],
      "stateMutability": "nonpayable",
      "type": "function"
    },
    {
      "inputs": [],
      "name": "withdrawTokens",
      "outputs": [],
      "stateMutability": "nonpayable",
      "type": "function"
    }
  ],
  "bytecode": "0x60806040523480156200001157600080fd5b50604051620013fc380380620013fc8339818101604052810190620000379190620003a2565b33600073ffffffffffffffffffffffffffffffffffffffff168173ffffffffffffffffffffffffffffffffffffffff1603620000ad5760006040517f1e4fbdf7000000000000000000000000000000000000000000000000000000008152600401620000a491906200043b565b60405180910390fd5b620000be816200023960201b60201c565b506000851162000105576040517f08c379a0000000000000000000000000000000000000000000000000000000008152600401620000fc90620004b9565b60405180910390fd5b600073ffffffffffffffffffffffffffffffffffffffff168473ffffffffffffffffffffffffffffffffffffffff160362000177576040517f08c379a00000000000000000000000000000000000000000000000000000000081526004016200016e906200052b565b60405180910390fd5b828211620001bc576040517f08c379a0000000000000000000000000000000000000000000000000000000008152600401620001b3906200059d565b60405180910390fd5b8460028190555083600160006101000a81548173ffffffffffffffffffffffffffffffffffffffff021916908373ffffffffffffffffffffffffffffffffffffffff1602179055508260038190555081600481905550670de0b6b3a764000081620002289190620005ee565b600581905550505050505062000639565b60008060009054906101000a900473ffffffffffffffffffffffffffffffffffffffff169050816000806101000a81548173ffffffffffffffffffffffffffffffffffffffff021916908373ffffffffffffffffffffffffffffffffffffffff1602179055508173ffffffffffffffffffffffffffffffffffffffff168173ffffffffffffffffffffffffffffffffffffffff167f8be0079c531659141344cd1fd0a4f28419497f9722a3daafe3b4186f6b6457e060405160405180910390a35050565b600080fd5b6000819050919050565b620003178162000302565b81146200032357600080fd5b50565b60008151905062000337816200030c565b92915050565b600073ffffffffffffffffffffffffffffffffffffffff82169050919050565b60006200036a826200033d565b9050919050565b6200037c816200035d565b81146200038857600080fd5b50565b6000815190506200039c8162000371565b92915050565b600080600080600060a08688031215620003c157620003c0620002fd565b5b6000620003d18882890162000326565b9550506020620003e4888289016200038b565b9450506040620003f78882890162000326565b93505060606200040a8882890162000326565b92505060806200041d8882890162000326565b9150509295509295909350565b62000435816200035d565b82525050565b60006020820190506200045260008301846200042a565b92915050565b600082825260208201905092915050565b7f5261746520697320300000000000000000000000000000000000000000000000600082015250565b6000620004a160098362000458565b9150620004ae8262000469565b602082019050919050565b60006020820190508181036000830152620004d48162000492565b9050919050565b7f546f6b656e206164647265737320697320300000000000000000000000000000600082015250565b60006200051360128362000458565b91506200052082620004db565b602082019050919050565b60006020820190508181036000830152620005468162000504565b9050919050565b7f436c6f73696e6754696d65206e65656420746f206265207375706572696f7200600082015250565b600062000585601f8362000458565b915062000592826200054d565b602082019050919050565b60006020820190508181036000830152620005b88162000576565b9050919050565b7f4e487b7100000000000000000000000000000000000000000000000000000000600052601160045260246000fd5b6000620005fb8262000302565b9150620006088362000302565b9250828202620006188162000302565b91508282048414831517620006325762000631620005bf565b5b5092915050565b610db380620006496000396000f3fe6080604052600436106100e85760003560e01c80638da5cb5b1161008a578063eec7faa111610059578063eec7faa11461028f578063f2fde38b146102ba578063fb86a404146102e3578063fc9960381461030e576100e8565b80638da5cb5b14610204578063b7a8807c1461022f578063c59ee1dc1461025a578063d0febe4c14610285576100e8565b80632c4e722e116100c65780632c4e722e146101805780634b6753bc146101ab578063715018a6146101d65780638d8f2adb146101ed576100e8565b806312065fe0146100ed5780631425d2fa1461011857806327e235e314610143575b600080fd5b3480156100f957600080fd5b5061010261034b565b60405161010f9190610a20565b60405180910390f35b34801561012457600080fd5b5061012d610392565b60405161013a9190610a20565b60405180910390f35b34801561014f57600080fd5b5061016a60048036038101906101659190610a9e565b6103d9565b6040516101779190610a20565b60405180910390f35b34801561018c57600080fd5b506101956103f1565b6040516101a29190610a20565b60405180910390f35b3480156101b757600080fd5b506101c06103f7565b6040516101cd9190610a20565b60405180910390f35b3480156101e257600080fd5b506101eb6103fd565b005b3480156101f957600080fd5b50610202610411565b005b34801561021057600080fd5b5061021961058f565b6040516102269190610ada565b60405180910390f35b34801561023b57600080fd5b506102446105b8565b6040516102519190610a20565b60405180910390f35b34801561026657600080fd5b5061026f6105be565b60405161027c9190610a20565b60405180910390f35b61028d6105c4565b005b34801561029b57600080fd5b506102a461080a565b6040516102b19190610a20565b60405180910390f35b3480156102c657600080fd5b506102e160048036038101906102dc9190610a9e565b610810565b005b3480156102ef57600080fd5b506102f8610896565b6040516103059190610a20565b60405180910390f35b34801561031a57600080fd5b5061033560048036038101906103309190610a9e565b61089c565b6040516103429190610a20565b60405180910390f35b6000600860003373ffffffffffffffffffffffffffffffffffffffff1673ffffffffffffffffffffffffffffffffffffffff16815260200190815260200160002054905090565b6000600960003373ffffffffffffffffffffffffffffffffffffffff1673ffffffffffffffffffffffffffffffffffffffff16815260200190815260200160002054905090565b60086020528060005260406000206000915090505481565b60025481565b60045481565b6104056108b4565b61040f600061093b565b565b6004544211610455576040517f08c379a000000000000000000000000000000000000000000000000000000000815260040161044c90610b52565b60405180910390fd5b6000600860003373ffffffffffffffffffffffffffffffffffffffff1673ffffffffffffffffffffffffffffffffffffffff168152602001908152602001600020549050600081116104a657600080fd5b6000600860003373ffffffffffffffffffffffffffffffffffffffff1673ffffffffffffffffffffffffffffffffffffffff16815260200190815260200160002081905550600160009054906101000a900473ffffffffffffffffffffffffffffffffffffffff1673ffffffffffffffffffffffffffffffffffffffff1663a9059cbb33836040518363ffffffff1660e01b8152600401610548929190610b72565b6020604051808303816000875af1158015610567573d6000803e3d6000fd5b505050506040513d601f19601f8201168201806040525081019061058b9190610bd3565b5050565b60008060009054906101000a900473ffffffffffffffffffffffffffffffffffffffff16905090565b60035481565b60065481565b60035442101580156105d857506004544211155b610617576040517f08c379a000000000000000000000000000000000000000000000000000000000815260040161060e90610c4c565b60405180910390fd5b6005546007541061065d576040517f08c379a000000000000000000000000000000000000000000000000000000000815260040161065490610cb8565b60405180910390fd5b60003490506000600254826106729190610d07565b9050816006546106829190610d49565b600681905550806007546106969190610d49565b60078190555081600860003373ffffffffffffffffffffffffffffffffffffffff1673ffffffffffffffffffffffffffffffffffffffff168152602001908152602001600020546106e79190610d49565b600860003373ffffffffffffffffffffffffffffffffffffffff1673ffffffffffffffffffffffffffffffffffffffff1681526020019081526020016000208190555080600960003373ffffffffffffffffffffffffffffffffffffffff1673ffffffffffffffffffffffffffffffffffffffff168152602001908152602001600020546107759190610d49565b600960003373ffffffffffffffffffffffffffffffffffffffff1673ffffffffffffffffffffffffffffffffffffffff168152602001908152602001600020819055503373ffffffffffffffffffffffffffffffffffffffff167ff4b351c7293f3c20fc9912c61adbe9823a6de3162bde18c98eb6feeae232f861826040516107fe9190610a20565b60405180910390a25050565b60075481565b6108186108b4565b600073ffffffffffffffffffffffffffffffffffffffff168173ffffffffffffffffffffffffffffffffffffffff160361088a5760006040517f1e4fbdf70000000000000000000000000000000000000000000000000000000081526004016108819190610ada565b60405180910390fd5b6108938161093b565b50565b60055481565b60096020528060005260406000206000915090505481565b6108bc6109ff565b73ffffffffffffffffffffffffffffffffffffffff166108da61058f565b73ffffffffffffffffffffffffffffffffffffffff1614610939576108fd6109ff565b6040517f118cdaa70000000000000000000000000000000000000000000000000000000081526004016109309190610ada565b60405180910390fd5b565b60008060009054906101000a900473ffffffffffffffffffffffffffffffffffffffff169050816000806101000a81548173ffffffffffffffffffffffffffffffffffffffff021916908373ffffffffffffffffffffffffffffffffffffffff1602179055508173ffffffffffffffffffffffffffffffffffffffff168173ffffffffffffffffffffffffffffffffffffffff167f8be0079c531659141344cd1fd0a4f28419497f9722a3daafe3b4186f6b6457e060405160405180910390a35050565b600033905090565b6000819050919050565b610a1a81610a07565b82525050565b6000602082019050610a356000830184610a11565b92915050565b600080fd5b600073ffffffffffffffffffffffffffffffffffffffff82169050919050565b6000610a6b82610a40565b9050919050565b610a7b81610a60565b8114610a8657600080fd5b50565b600081359050610a9881610a72565b92915050565b600060208284031215610ab457610ab3610a3b565b5b6000610ac284828501610a89565b91505092915050565b610ad481610a60565b82525050565b6000602082019050610aef6000830184610acb565b92915050565b600082825260208201905092915050565b7f49636f206e6f742066696e697368000000000000000000000000000000000000600082015250565b6000610b3c600e83610af5565b9150610b4782610b06565b602082019050919050565b60006020820190508181036000830152610b6b81610b2f565b9050919050565b6000604082019050610b876000830185610acb565b610b946020830184610a11565b9392505050565b60008115159050919050565b610bb081610b9b565b8114610bbb57600080fd5b50565b600081519050610bcd81610ba7565b92915050565b600060208284031215610be957610be8610a3b565b5b6000610bf784828501610bbe565b91505092915050565b7f49636f206e6f74206f70656e0000000000000000000000000000000000000000600082015250565b6000610c36600c83610af5565b9150610c4182610c00565b602082019050919050565b60006020820190508181036000830152610c6581610c29565b9050919050565b7f4861726420436170205265616368656400000000000000000000000000000000600082015250565b6000610ca2601083610af5565b9150610cad82610c6c565b602082019050919050565b60006020820190508181036000830152610cd181610c95565b9050919050565b7f4e487b7100000000000000000000000000000000000000000000000000000000600052601160045260246000fd5b6000610d1282610a07565b9150610d1d83610a07565b9250828202610d2b81610a07565b91508282048414831517610d4257610d41610cd8565b5b5092915050565b6000610d5482610a07565b9150610d5f83610a07565b9250828201905080821115610d7757610d76610cd8565b5b9291505056fea264697066735822122074fced8ed957af6cd15027d69001797e261288658be8ef46cb5f4ddfe57543ab64736f6c63430008140033",
  "linkReferences": {},
  "deployedLinkReferences": {}
}